{
  "_format": "hh-sol-artifact-1",
  "contractName": "ThePiggyBank",
  "sourceName": "contracts/ThePiggyBank.sol",
  "abi": [
    {
      "inputs": [
        {
          "internalType": "address",
          "name": "_owner",
          "type": "address"
        },
        {
          "internalType": "string",
          "name": "_purpose",
          "type": "string"
        },
        {
          "internalType": "uint256",
          "name": "_duration",
          "type": "uint256"
        },
        {
          "internalType": "address",
          "name": "_devaddress",
          "type": "address"
        },
        {
          "internalType": "address",
          "name": "_usdt",
          "type": "address"
        },
        {
          "internalType": "address",
          "name": "_usdc",
          "type": "address"
        },
        {
          "internalType": "address",
          "name": "_dai",
          "type": "address"
        }
      ],
      "stateMutability": "nonpayable",
      "type": "constructor"
    },
    {
      "anonymous": false,
      "inputs": [
        {
          "indexed": true,
          "internalType": "address",
          "name": "token",
          "type": "address"
        },
        {
          "indexed": false,
          "internalType": "uint256",
          "name": "amount",
          "type": "uint256"
        }
      ],
      "name": "Deposited",
      "type": "event"
    },
    {
      "anonymous": false,
      "inputs": [
        {
          "indexed": true,
          "internalType": "address",
          "name": "user",
          "type": "address"
        },
        {
          "indexed": false,
          "internalType": "address",
          "name": "token",
          "type": "address"
        },
        {
          "indexed": false,
          "internalType": "uint256",
          "name": "amount",
          "type": "uint256"
        },
        {
          "indexed": false,
          "internalType": "uint256",
          "name": "penalty",
          "type": "uint256"
        }
      ],
      "name": "Withdrawn",
      "type": "event"
    },
    {
      "inputs": [
        {
          "internalType": "address",
          "name": "token",
          "type": "address"
        }
      ],
      "name": "Withdraw",
      "outputs": [],
      "stateMutability": "nonpayable",
      "type": "function"
    },
    {
      "inputs": [
        {
          "internalType": "address",
          "name": "",
          "type": "address"
        }
      ],
      "name": "balances",
      "outputs": [
        {
          "internalType": "uint256",
          "name": "",
          "type": "uint256"
        }
      ],
      "stateMutability": "view",
      "type": "function"
    },
    {
      "inputs": [],
      "name": "dai",
      "outputs": [
        {
          "internalType": "contract IERC20",
          "name": "",
          "type": "address"
        }
      ],
      "stateMutability": "view",
      "type": "function"
    },
    {
      "inputs": [
        {
          "internalType": "uint256",
          "name": "amount",
          "type": "uint256"
        },
        {
          "internalType": "address",
          "name": "token",
          "type": "address"
        }
      ],
      "name": "deposit",
      "outputs": [],
      "stateMutability": "nonpayable",
      "type": "function"
    },
    {
      "inputs": [],
      "name": "devAddress",
      "outputs": [
        {
          "internalType": "address",
          "name": "",
          "type": "address"
        }
      ],
      "stateMutability": "view",
      "type": "function"
    },
    {
      "inputs": [],
      "name": "duration",
      "outputs": [
        {
          "internalType": "uint256",
          "name": "",
          "type": "uint256"
        }
      ],
      "stateMutability": "view",
      "type": "function"
    },
    {
      "inputs": [],
      "name": "iswithdrawn",
      "outputs": [
        {
          "internalType": "bool",
          "name": "",
          "type": "bool"
        }
      ],
      "stateMutability": "view",
      "type": "function"
    },
    {
      "inputs": [],
      "name": "owner",
      "outputs": [
        {
          "internalType": "address",
          "name": "",
          "type": "address"
        }
      ],
      "stateMutability": "view",
      "type": "function"
    },
    {
      "inputs": [],
      "name": "purpose",
      "outputs": [
        {
          "internalType": "string",
          "name": "",
          "type": "string"
        }
      ],
      "stateMutability": "view",
      "type": "function"
    },
    {
      "inputs": [],
      "name": "starttime",
      "outputs": [
        {
          "internalType": "uint256",
          "name": "",
          "type": "uint256"
        }
      ],
      "stateMutability": "view",
      "type": "function"
    },
    {
      "inputs": [],
      "name": "timing",
      "outputs": [
        {
          "internalType": "bool",
          "name": "",
          "type": "bool"
        }
      ],
      "stateMutability": "view",
      "type": "function"
    },
    {
      "inputs": [],
      "name": "usdc",
      "outputs": [
        {
          "internalType": "contract IERC20",
          "name": "",
          "type": "address"
        }
      ],
      "stateMutability": "view",
      "type": "function"
    },
    {
      "inputs": [],
      "name": "usdt",
      "outputs": [
        {
          "internalType": "contract IERC20",
          "name": "",
          "type": "address"
        }
      ],
      "stateMutability": "view",
      "type": "function"
    }
  ],
  "bytecode": "0x608060405234801561001057600080fd5b50604051611c53380380611c53833981810160405281019061003291906103c4565b866000806101000a81548173ffffffffffffffffffffffffffffffffffffffff021916908373ffffffffffffffffffffffffffffffffffffffff16021790555085600190816100819190610699565b508460028190555083600460016101000a81548173ffffffffffffffffffffffffffffffffffffffff021916908373ffffffffffffffffffffffffffffffffffffffff1602179055504260038190555082600660006101000a81548173ffffffffffffffffffffffffffffffffffffffff021916908373ffffffffffffffffffffffffffffffffffffffff16021790555081600760006101000a81548173ffffffffffffffffffffffffffffffffffffffff021916908373ffffffffffffffffffffffffffffffffffffffff16021790555080600860006101000a81548173ffffffffffffffffffffffffffffffffffffffff021916908373ffffffffffffffffffffffffffffffffffffffff1602179055506000600460006101000a81548160ff0219169083151502179055505050505050505061076b565b6000604051905090565b600080fd5b600080fd5b600073ffffffffffffffffffffffffffffffffffffffff82169050919050565b60006101fa826101cf565b9050919050565b61020a816101ef565b811461021557600080fd5b50565b60008151905061022781610201565b92915050565b600080fd5b600080fd5b6000601f19601f8301169050919050565b7f4e487b7100000000000000000000000000000000000000000000000000000000600052604160045260246000fd5b61028082610237565b810181811067ffffffffffffffff8211171561029f5761029e610248565b5b80604052505050565b60006102b26101bb565b90506102be8282610277565b919050565b600067ffffffffffffffff8211156102de576102dd610248565b5b6102e782610237565b9050602081019050919050565b60005b838110156103125780820151818401526020810190506102f7565b60008484015250505050565b600061033161032c846102c3565b6102a8565b90508281526020810184848401111561034d5761034c610232565b5b6103588482856102f4565b509392505050565b600082601f8301126103755761037461022d565b5b815161038584826020860161031e565b91505092915050565b6000819050919050565b6103a18161038e565b81146103ac57600080fd5b50565b6000815190506103be81610398565b92915050565b600080600080600080600060e0888a0312156103e3576103e26101c5565b5b60006103f18a828b01610218565b975050602088015167ffffffffffffffff811115610412576104116101ca565b5b61041e8a828b01610360565b965050604061042f8a828b016103af565b95505060606104408a828b01610218565b94505060806104518a828b01610218565b93505060a06104628a828b01610218565b92505060c06104738a828b01610218565b91505092959891949750929550565b600081519050919050565b7f4e487b7100000000000000000000000000000000000000000000000000000000600052602260045260246000fd5b600060028204905060018216806104d457607f821691505b6020821081036104e7576104e661048d565b5b50919050565b60008190508160005260206000209050919050565b60006020601f8301049050919050565b600082821b905092915050565b60006008830261054f7fffffffffffffffffffffffffffffffffffffffffffffffffffffffffffffffff82610512565b6105598683610512565b95508019841693508086168417925050509392505050565b6000819050919050565b600061059661059161058c8461038e565b610571565b61038e565b9050919050565b6000819050919050565b6105b08361057b565b6105c46105bc8261059d565b84845461051f565b825550505050565b600090565b6105d96105cc565b6105e48184846105a7565b505050565b5b81811015610608576105fd6000826105d1565b6001810190506105ea565b5050565b601f82111561064d5761061e816104ed565b61062784610502565b81016020851015610636578190505b61064a61064285610502565b8301826105e9565b50505b505050565b600082821c905092915050565b600061067060001984600802610652565b1980831691505092915050565b6000610689838361065f565b9150826002028217905092915050565b6106a282610482565b67ffffffffffffffff8111156106bb576106ba610248565b5b6106c582546104bc565b6106d082828561060c565b600060209050601f83116001811461070357600084156106f1578287015190505b6106fb858261067d565b865550610763565b601f198416610711866104ed565b60005b8281101561073957848901518255600182019150602085019450602081019050610714565b868310156107565784890151610752601f89168261065f565b8355505b6001600288020188555050505b505050505050565b6114d98061077a6000396000f3fe608060405234801561001057600080fd5b50600436106100cf5760003560e01c806358da60291161008c5780638da58897116100665780638da58897146101f25780638da5cb5b14610210578063f4b9fa751461022e578063f67611511461024c576100cf565b806358da60291461019a5780636e553f65146101b857806370740aab146101d4576100cf565b80630fb5a6b4146100d457806327e235e3146100f25780632f48ab7d146101225780633ad10ef6146101405780633e413bee1461015e5780634fba5adf1461017c575b600080fd5b6100dc610268565b6040516100e99190610c7d565b60405180910390f35b61010c60048036038101906101079190610cfb565b61026e565b6040516101199190610c7d565b60405180910390f35b61012a610286565b6040516101379190610d87565b60405180910390f35b6101486102ac565b6040516101559190610db1565b60405180910390f35b6101666102d2565b6040516101739190610d87565b60405180910390f35b6101846102f8565b6040516101919190610de7565b60405180910390f35b6101a2610312565b6040516101af9190610de7565b60405180910390f35b6101d260048036038101906101cd9190610e2e565b610325565b005b6101dc6106af565b6040516101e99190610efe565b60405180910390f35b6101fa61073d565b6040516102079190610c7d565b60405180910390f35b610218610743565b6040516102259190610db1565b60405180910390f35b610236610767565b6040516102439190610d87565b60405180910390f35b61026660048036038101906102619190610cfb565b61078d565b005b60025481565b60056020528060005260406000206000915090505481565b600660009054906101000a900473ffffffffffffffffffffffffffffffffffffffff1681565b600460019054906101000a900473ffffffffffffffffffffffffffffffffffffffff1681565b600760009054906101000a900473ffffffffffffffffffffffffffffffffffffffff1681565b600060025460035461030a9190610f4f565b421015905090565b600460009054906101000a900460ff1681565b3373ffffffffffffffffffffffffffffffffffffffff1660008054906101000a900473ffffffffffffffffffffffffffffffffffffffff1673ffffffffffffffffffffffffffffffffffffffff16146103b3576040517f08c379a00000000000000000000000000000000000000000000000000000000081526004016103aa90610ff5565b60405180910390fd5b600460009054906101000a900460ff1615610403576040517f08c379a00000000000000000000000000000000000000000000000000000000081526004016103fa90611061565b60405180910390fd5b60008211610446576040517f08c379a000000000000000000000000000000000000000000000000000000000815260040161043d906110f3565b60405180910390fd5b600660009054906101000a900473ffffffffffffffffffffffffffffffffffffffff1673ffffffffffffffffffffffffffffffffffffffff168173ffffffffffffffffffffffffffffffffffffffff1614806104ef5750600760009054906101000a900473ffffffffffffffffffffffffffffffffffffffff1673ffffffffffffffffffffffffffffffffffffffff168173ffffffffffffffffffffffffffffffffffffffff16145b806105475750600860009054906101000a900473ffffffffffffffffffffffffffffffffffffffff1673ffffffffffffffffffffffffffffffffffffffff168173ffffffffffffffffffffffffffffffffffffffff16145b610586576040517f08c379a000000000000000000000000000000000000000000000000000000000815260040161057d90611185565b60405180910390fd5b8073ffffffffffffffffffffffffffffffffffffffff166323b872dd3330856040518463ffffffff1660e01b81526004016105c3939291906111a5565b6020604051808303816000875af11580156105e2573d6000803e3d6000fd5b505050506040513d601f19601f820116820180604052508101906106069190611208565b5081600560008373ffffffffffffffffffffffffffffffffffffffff1673ffffffffffffffffffffffffffffffffffffffff16815260200190815260200160002060008282546106569190610f4f565b925050819055508073ffffffffffffffffffffffffffffffffffffffff167f2da466a7b24304f47e87fa2e1e5a81b9831ce54fec19055ce277ca2f39ba42c4836040516106a39190610c7d565b60405180910390a25050565b600180546106bc90611264565b80601f01602080910402602001604051908101604052809291908181526020018280546106e890611264565b80156107355780601f1061070a57610100808354040283529160200191610735565b820191906000526020600020905b81548152906001019060200180831161071857829003601f168201915b505050505081565b60035481565b60008054906101000a900473ffffffffffffffffffffffffffffffffffffffff1681565b600860009054906101000a900473ffffffffffffffffffffffffffffffffffffffff1681565b3373ffffffffffffffffffffffffffffffffffffffff1660008054906101000a900473ffffffffffffffffffffffffffffffffffffffff1673ffffffffffffffffffffffffffffffffffffffff161461081b576040517f08c379a000000000000000000000000000000000000000000000000000000000815260040161081290610ff5565b60405180910390fd5b600460009054906101000a900460ff161561086b576040517f08c379a000000000000000000000000000000000000000000000000000000000815260040161086290611061565b60405180910390fd5b600660009054906101000a900473ffffffffffffffffffffffffffffffffffffffff1673ffffffffffffffffffffffffffffffffffffffff168173ffffffffffffffffffffffffffffffffffffffff1614806109145750600760009054906101000a900473ffffffffffffffffffffffffffffffffffffffff1673ffffffffffffffffffffffffffffffffffffffff168173ffffffffffffffffffffffffffffffffffffffff16145b8061096c5750600860009054906101000a900473ffffffffffffffffffffffffffffffffffffffff1673ffffffffffffffffffffffffffffffffffffffff168173ffffffffffffffffffffffffffffffffffffffff16145b6109ab576040517f08c379a00000000000000000000000000000000000000000000000000000000081526004016109a2906112e1565b60405180910390fd5b6000600560008373ffffffffffffffffffffffffffffffffffffffff1673ffffffffffffffffffffffffffffffffffffffff16815260200190815260200160002054905060008111610a32576040517f08c379a0000000000000000000000000000000000000000000000000000000008152600401610a299061134d565b60405180910390fd5b6000610a3c6102f8565b610afd576064600f83610a4f919061136d565b610a5991906113de565b90508273ffffffffffffffffffffffffffffffffffffffff1663a9059cbb600460019054906101000a900473ffffffffffffffffffffffffffffffffffffffff16836040518363ffffffff1660e01b8152600401610ab892919061140f565b6020604051808303816000875af1158015610ad7573d6000803e3d6000fd5b505050506040513d601f19601f82011682018060405250810190610afb9190611208565b505b60008183610b0b9190611438565b90508373ffffffffffffffffffffffffffffffffffffffff1663a9059cbb60008054906101000a900473ffffffffffffffffffffffffffffffffffffffff16836040518363ffffffff1660e01b8152600401610b6892919061140f565b6020604051808303816000875af1158015610b87573d6000803e3d6000fd5b505050506040513d601f19601f82011682018060405250810190610bab9190611208565b506000600560008673ffffffffffffffffffffffffffffffffffffffff1673ffffffffffffffffffffffffffffffffffffffff168152602001908152602001600020819055506001600460006101000a81548160ff0219169083151502179055503373ffffffffffffffffffffffffffffffffffffffff167f91fb9d98b786c57d74c099ccd2beca1739e9f6a81fb49001ca465c4b7591bbe2858385604051610c569392919061146c565b60405180910390a250505050565b6000819050919050565b610c7781610c64565b82525050565b6000602082019050610c926000830184610c6e565b92915050565b600080fd5b600073ffffffffffffffffffffffffffffffffffffffff82169050919050565b6000610cc882610c9d565b9050919050565b610cd881610cbd565b8114610ce357600080fd5b50565b600081359050610cf581610ccf565b92915050565b600060208284031215610d1157610d10610c98565b5b6000610d1f84828501610ce6565b91505092915050565b6000819050919050565b6000610d4d610d48610d4384610c9d565b610d28565b610c9d565b9050919050565b6000610d5f82610d32565b9050919050565b6000610d7182610d54565b9050919050565b610d8181610d66565b82525050565b6000602082019050610d9c6000830184610d78565b92915050565b610dab81610cbd565b82525050565b6000602082019050610dc66000830184610da2565b92915050565b60008115159050919050565b610de181610dcc565b82525050565b6000602082019050610dfc6000830184610dd8565b92915050565b610e0b81610c64565b8114610e1657600080fd5b50565b600081359050610e2881610e02565b92915050565b60008060408385031215610e4557610e44610c98565b5b6000610e5385828601610e19565b9250506020610e6485828601610ce6565b9150509250929050565b600081519050919050565b600082825260208201905092915050565b60005b83811015610ea8578082015181840152602081019050610e8d565b60008484015250505050565b6000601f19601f8301169050919050565b6000610ed082610e6e565b610eda8185610e79565b9350610eea818560208601610e8a565b610ef381610eb4565b840191505092915050565b60006020820190508181036000830152610f188184610ec5565b905092915050565b7f4e487b7100000000000000000000000000000000000000000000000000000000600052601160045260246000fd5b6000610f5a82610c64565b9150610f6583610c64565b9250828201905080821115610f7d57610f7c610f20565b5b92915050565b7f4f6e6c7920746865206f776e65722063616e20706572666f726d20746869732060008201527f7461736b00000000000000000000000000000000000000000000000000000000602082015250565b6000610fdf602483610e79565b9150610fea82610f83565b604082019050919050565b6000602082019050818103600083015261100e81610fd2565b9050919050565b7f436f6e7472616374206973207465726d696e6174656400000000000000000000600082015250565b600061104b601683610e79565b915061105682611015565b602082019050919050565b6000602082019050818103600083015261107a8161103e565b9050919050565b7f4465706f73697420616d6f756e74206d7573742062652067726561746572207460008201527f68616e2030000000000000000000000000000000000000000000000000000000602082015250565b60006110dd602583610e79565b91506110e882611081565b604082019050919050565b6000602082019050818103600083015261110c816110d0565b9050919050565b7f546869732070696767792062616e6b206f6e6c7920737570706f72747320555360008201527f44542c20555344432c20616e6420444149000000000000000000000000000000602082015250565b600061116f603183610e79565b915061117a82611113565b604082019050919050565b6000602082019050818103600083015261119e81611162565b9050919050565b60006060820190506111ba6000830186610da2565b6111c76020830185610da2565b6111d46040830184610c6e565b949350505050565b6111e581610dcc565b81146111f057600080fd5b50565b600081519050611202816111dc565b92915050565b60006020828403121561121e5761121d610c98565b5b600061122c848285016111f3565b91505092915050565b7f4e487b7100000000000000000000000000000000000000000000000000000000600052602260045260246000fd5b6000600282049050600182168061127c57607f821691505b60208210810361128f5761128e611235565b5b50919050565b7f556e737570706f7274656420746f6b656e000000000000000000000000000000600082015250565b60006112cb601183610e79565b91506112d682611295565b602082019050919050565b600060208201905081810360008301526112fa816112be565b9050919050565b7f4e6f2062616c616e636520746f20776974686472617700000000000000000000600082015250565b6000611337601683610e79565b915061134282611301565b602082019050919050565b600060208201905081810360008301526113668161132a565b9050919050565b600061137882610c64565b915061138383610c64565b925082820261139181610c64565b915082820484148315176113a8576113a7610f20565b5b5092915050565b7f4e487b7100000000000000000000000000000000000000000000000000000000600052601260045260246000fd5b60006113e982610c64565b91506113f483610c64565b925082611404576114036113af565b5b828204905092915050565b60006040820190506114246000830185610da2565b6114316020830184610c6e565b9392505050565b600061144382610c64565b915061144e83610c64565b925082820390508181111561146657611465610f20565b5b92915050565b60006060820190506114816000830186610da2565b61148e6020830185610c6e565b61149b6040830184610c6e565b94935050505056fea264697066735822122092b90faca7d9308a40dd18cda0fefd7c4d7b22496b34f5af51049e6b59164f9664736f6c634300081c0033",
  "linkReferences": {},
  "deployedLinkReferences": {}
}