{
  "_format": "hh-sol-artifact-1",
  "contractName": "PiggyBankFactory",
  "sourceName": "contracts/ThePiggyBankFactory.sol",
  "abi": [
    {
      "inputs": [
        {
          "internalType": "address",
          "name": "_implementation",
          "type": "address"
        }
      ],
      "stateMutability": "nonpayable",
      "type": "constructor"
    },
    {
      "inputs": [],
      "name": "FailedDeployment",
      "type": "error"
    },
    {
      "inputs": [
        {
          "internalType": "uint256",
          "name": "balance",
          "type": "uint256"
        },
        {
          "internalType": "uint256",
          "name": "needed",
          "type": "uint256"
        }
      ],
      "name": "InsufficientBalance",
      "type": "error"
    },
    {
      "anonymous": false,
      "inputs": [
        {
          "indexed": true,
          "internalType": "address",
          "name": "piggyBankAddress",
          "type": "address"
        },
        {
          "indexed": true,
          "internalType": "address",
          "name": "ownerAddress",
          "type": "address"
        },
        {
          "indexed": false,
          "internalType": "string",
          "name": "purpose",
          "type": "string"
        },
        {
          "indexed": false,
          "internalType": "uint256",
          "name": "duration",
          "type": "uint256"
        },
        {
          "indexed": false,
          "internalType": "address",
          "name": "devAddress",
          "type": "address"
        }
      ],
      "name": "PiggyBankCreated",
      "type": "event"
    },
    {
      "inputs": [
        {
          "internalType": "address",
          "name": "_owner",
          "type": "address"
        },
        {
          "internalType": "string",
          "name": "_purpose",
          "type": "string"
        },
        {
          "internalType": "uint256",
          "name": "_duration",
          "type": "uint256"
        },
        {
          "internalType": "address",
          "name": "_devAddress",
          "type": "address"
        },
        {
          "internalType": "address",
          "name": "_usdt",
          "type": "address"
        },
        {
          "internalType": "address",
          "name": "_usdc",
          "type": "address"
        },
        {
          "internalType": "address",
          "name": "_dai",
          "type": "address"
        },
        {
          "internalType": "bytes32",
          "name": "_salt",
          "type": "bytes32"
        }
      ],
      "name": "createPiggyBank",
      "outputs": [
        {
          "internalType": "address",
          "name": "instance",
          "type": "address"
        }
      ],
      "stateMutability": "nonpayable",
      "type": "function"
    },
    {
      "inputs": [],
      "name": "implementation",
      "outputs": [
        {
          "internalType": "address",
          "name": "",
          "type": "address"
        }
      ],
      "stateMutability": "view",
      "type": "function"
    },
    {
      "inputs": [],
      "name": "owner",
      "outputs": [
        {
          "internalType": "address",
          "name": "",
          "type": "address"
        }
      ],
      "stateMutability": "view",
      "type": "function"
    },
    {
      "inputs": [
        {
          "internalType": "bytes32",
          "name": "_salt",
          "type": "bytes32"
        }
      ],
      "name": "predictPiggyBankAddress",
      "outputs": [
        {
          "internalType": "address",
          "name": "",
          "type": "address"
        }
      ],
      "stateMutability": "view",
      "type": "function"
    }
  ],
  "bytecode": "0x60a060405234801561001057600080fd5b50604051610bfb380380610bfb8339818101604052810190610032919061010f565b8073ffffffffffffffffffffffffffffffffffffffff1660808173ffffffffffffffffffffffffffffffffffffffff1681525050336000806101000a81548173ffffffffffffffffffffffffffffffffffffffff021916908373ffffffffffffffffffffffffffffffffffffffff1602179055505061013c565b600080fd5b600073ffffffffffffffffffffffffffffffffffffffff82169050919050565b60006100dc826100b1565b9050919050565b6100ec816100d1565b81146100f757600080fd5b50565b600081519050610109816100e3565b92915050565b600060208284031215610125576101246100ac565b5b6000610133848285016100fa565b91505092915050565b608051610a976101646000396000818160ef015281816101d9015261032b0152610a976000f3fe608060405234801561001057600080fd5b506004361061004c5760003560e01c80635c60da1b146100515780638da5cb5b1461006f5780639ba036ef1461008d578063a83b4e01146100bd575b600080fd5b6100596100ed565b6040516100669190610520565b60405180910390f35b610077610111565b6040516100849190610520565b60405180910390f35b6100a760048036038101906100a2919061072d565b610135565b6040516100b49190610520565b60405180910390f35b6100d760048036038101906100d291906107ff565b610324565b6040516100e49190610520565b60405180910390f35b7f000000000000000000000000000000000000000000000000000000000000000081565b60008054906101000a900473ffffffffffffffffffffffffffffffffffffffff1681565b6000808989898989898960405160240161015597969594939291906108ba565b6040516020818303038152906040527fa71b15c4000000000000000000000000000000000000000000000000000000007bffffffffffffffffffffffffffffffffffffffffffffffffffffffff19166020820180517bffffffffffffffffffffffffffffffffffffffffffffffffffffffff838183161783525050505090506101fe7f000000000000000000000000000000000000000000000000000000000000000084610358565b915060008273ffffffffffffffffffffffffffffffffffffffff16826040516102279190610977565b6000604051808303816000865af19150503d8060008114610264576040519150601f19603f3d011682016040523d82523d6000602084013e610269565b606091505b50509050806102ad576040517f08c379a00000000000000000000000000000000000000000000000000000000081526004016102a4906109da565b60405180910390fd5b8a73ffffffffffffffffffffffffffffffffffffffff168373ffffffffffffffffffffffffffffffffffffffff167f24cd741ef30affb5ae3d6dcdc9e4bee7f981ef66e50228df02d68809bf81cf008c8c8c60405161030e939291906109fa565b60405180910390a3505098975050505050505050565b60006103517f0000000000000000000000000000000000000000000000000000000000000000833061036e565b9050919050565b6000610366838360006103e5565b905092915050565b60006040518260388201526f5af43d82803e903d91602b57fd5bf3ff6024820152846014820152733d602d80600a3d3981f3363d3d373d3d3d363d7381528360588201526037600c820120607882015273ffffffffffffffffffffffffffffffffffffffff60556043830120169150509392505050565b60008147101561042e5747826040517fcf479181000000000000000000000000000000000000000000000000000000008152600401610425929190610a38565b60405180910390fd5b763d602d80600a3d3981f3363d3d373d3d3d363d730000008460601b60e81c176000526e5af43d82803e903d91602b57fd5bf38460781b17602052826037600984f59050600073ffffffffffffffffffffffffffffffffffffffff168173ffffffffffffffffffffffffffffffffffffffff16036104d8576040517fb06ebf3d00000000000000000000000000000000000000000000000000000000815260040160405180910390fd5b9392505050565b600073ffffffffffffffffffffffffffffffffffffffff82169050919050565b600061050a826104df565b9050919050565b61051a816104ff565b82525050565b60006020820190506105356000830184610511565b92915050565b6000604051905090565b600080fd5b600080fd5b610558816104ff565b811461056357600080fd5b50565b6000813590506105758161054f565b92915050565b600080fd5b600080fd5b6000601f19601f8301169050919050565b7f4e487b7100000000000000000000000000000000000000000000000000000000600052604160045260246000fd5b6105ce82610585565b810181811067ffffffffffffffff821117156105ed576105ec610596565b5b80604052505050565b600061060061053b565b905061060c82826105c5565b919050565b600067ffffffffffffffff82111561062c5761062b610596565b5b61063582610585565b9050602081019050919050565b82818337600083830152505050565b600061066461065f84610611565b6105f6565b9050828152602081018484840111156106805761067f610580565b5b61068b848285610642565b509392505050565b600082601f8301126106a8576106a761057b565b5b81356106b8848260208601610651565b91505092915050565b6000819050919050565b6106d4816106c1565b81146106df57600080fd5b50565b6000813590506106f1816106cb565b92915050565b6000819050919050565b61070a816106f7565b811461071557600080fd5b50565b60008135905061072781610701565b92915050565b600080600080600080600080610100898b03121561074e5761074d610545565b5b600061075c8b828c01610566565b985050602089013567ffffffffffffffff81111561077d5761077c61054a565b5b6107898b828c01610693565b975050604061079a8b828c016106e2565b96505060606107ab8b828c01610566565b95505060806107bc8b828c01610566565b94505060a06107cd8b828c01610566565b93505060c06107de8b828c01610566565b92505060e06107ef8b828c01610718565b9150509295985092959890939650565b60006020828403121561081557610814610545565b5b600061082384828501610718565b91505092915050565b600081519050919050565b600082825260208201905092915050565b60005b8381101561086657808201518184015260208101905061084b565b60008484015250505050565b600061087d8261082c565b6108878185610837565b9350610897818560208601610848565b6108a081610585565b840191505092915050565b6108b4816106c1565b82525050565b600060e0820190506108cf600083018a610511565b81810360208301526108e18189610872565b90506108f060408301886108ab565b6108fd6060830187610511565b61090a6080830186610511565b61091760a0830185610511565b61092460c0830184610511565b98975050505050505050565b600081519050919050565b600081905092915050565b600061095182610930565b61095b818561093b565b935061096b818560208601610848565b80840191505092915050565b60006109838284610946565b915081905092915050565b7f496e697469616c697a6174696f6e206661696c65640000000000000000000000600082015250565b60006109c4601583610837565b91506109cf8261098e565b602082019050919050565b600060208201905081810360008301526109f3816109b7565b9050919050565b60006060820190508181036000830152610a148186610872565b9050610a2360208301856108ab565b610a306040830184610511565b949350505050565b6000604082019050610a4d60008301856108ab565b610a5a60208301846108ab565b939250505056fea2646970667358221220119a8b7d635c28e7317cdebacfc3a4dd2efa0ccd9bba077b9b34832c03f7110a64736f6c634300081c0033",
  "linkReferences": {},
  "deployedLinkReferences": {}
}